:02000000722F5D
:10000800FF00030E8301E6000A08E5008A01700874
:10001800A1000B150B1D11280B11C40A0319C50AE1
:1000280000304506031D1A289B304406031D272867
:100038000F08A500A4010E08A4040030A504C401FB
:10004800C5018F018E01043081002108F000650888
:0C0058008A00660E8300FF0E7F0E090078
:1000640083160313450883129300831614183B2840
:0A007400372883121308F00008007B
:10007E00831203135C088316C5003220091409107D
:02008E00080068
:0E009000F201F101F001F801F3010030080067
:10009E007B15FB1F59280130F300F201F101F0012D
:0800AE00FA0DF20CFF3008000E
:0800B600FA1FF21300300800EC
:1000BE00FB14FB1F6928FF30F300F200F100F00083
:0800CE00FA0DF20CFF300800EE
:1000D600710DF80DF90D7408F8027508031C750FFB
:1000E600F902F00DF10D0F30FC00710DF80DF90D50
:1000F6007408701C8428F8027508031C750FF90231
:100106008928F80775080318750FF907F00DF10D22
:10011600FC0B7828701895287408F80775080318DA
:08012600750FF9070000080045
:10012E0083120313FD01F8017008031900347406DD
:10013E00FA00FA1BFD09FB01F41FA728F409F40AC3
:10014E00F01FAB28F009F00A70087404FA00FA1BCD
:10015E00CF287408F802F00D700DF80D7408F8072A
:10016E00F00D0630FC00700DF80D74087018F802D2
:10017E00701CF807F00DFC0BBA28701CF8077B18E2
:10018E00DD28FD1F0034F009F00AF809F80A0034E2
:10019E00F41FDA28F01BD7287008F800F001C828E1
:1001AE00F001F00A0034F009FB0AB028F80A7408CE
:1001BE007802031DC828F801F00AF01FC828FF3482
:0201CE00080027
:1001D0000F3083120313DC05F03083164305F00063
:1001E00070088312DC04DC153F20DC113F200F3047
:1001F000DC0583164308F000F00D7010F00D701050
:10020000F00D7010F00D7010F030F00570088312D2
:0C021000DC04DC153F20DC113F2008005E
:10021C00A0017208031D23297108F2007008F10077
:10022C00F001A0157208031D23297108F200F101D9
:10023C00A01120167208031931292008F302031D9E
:10024C00031C35290310F21B3929F00DF10DF20DA9
:10025C00F30B292935290130FC0048203C290230B8
:0E026C00FC004F203C290430FC005B20080001
:10027A0083120313FA017308031D7A147708031D06
:10028A00FA147A0803198929033A031954297A189E
:10029A005129F61F87298529F21F8529872972087E
:1002AA008039FA00F21376088039F6137A060319B0
:1002BA0062297A080319852987297708730203199D
:1002CA006929031C7D29812976087202031970297C
:1002DA00031C7D2981297508710203197729031CDA
:1002EA007D29812974087002031989290318812933
:1002FA00FA08031987298529FA08031985298729FC
:10030A00031408000310080003140315080008006A
:10031A0083120313FB017308031D77080319E429E9
:10032A0072087606FA007708F3077E30031CA129C3
:10033A00F3020318E729A429F302031CEA29720825
:10034A00F8007108FC007008FD00F817F617031092
:10035A00F201F101F0011830A0007D1CBE297408D9
:10036A00F00775080318750FF10776080318760F5A
:10037A00F207F20CF10CF00CF80CFC0CFD0C03105B
:10038A00A00BB229F21BCE29F80DF00DF10DF20DDA
:10039A00F3037B1B701CE029F81FE029F00A0319FC
:1003AA00F10A0319F20A031DE029F20CF10CF00C10
:1003BA00F30A0319E729FA1FF2130030EC29013076
:1003CA004820EC2902305F20EC2904304F2000003D
:0203DA00080019
:1003DC00831603134308F2007208F100F20A440872
:1003EC00F000C40A700884000008F0007108840052
:1003FC00700880007108840000080319062AF2298D
:06040C004308F0000800A7
:10041200831203135C1568088316C300E8200800E2
:1004220083120313EF018316C20183126808831635
:10043200BE00831269088316BF0083126A088316FE
:10044200C00083126B088316C1004108FF3A031DE6
:10045200342A4008FF3A031D342A3F08FF3A031D9D
:10046200342A3E08FF3A031D402A83126C08831681
:10047200C3003730C400EE210330F0003E2C0130BF
:100482008312ED008316C01F522A80304006F0000E
:100492007008C0008312ED0A6C0884002D308000C1
:1004A200EC0A0030F00083164106031D622A700830
:1004B2004006031D622A70083F06031D622A3E0899
:1004C200003A031D6D2A83126C088316C300423062
:1004D200C400EE21F0013E2C4108FF3A031D7B2AA5
:1004E2004008003A031D7B2A3F08003A031D7B2A7D
:1004F2003E08003A031D882A83126C088316C30043
:100502004630C400EE2183126D08F0003E2C00300C
:10051200F4000030F5000030F6007F30F70083165B
:100522003E08F0003F08F1004008F2004108F300E5
:100532003D21013003180030F00070080319BE2A73
:1005420083163E08F0003F08F1004008F20041081F
:10055200F3000030F4000030F5002030F600823065
:10056200F7008D2170088316BE007108BF00720863
:10057200C0007308C100C203882A83160030F40049
:100582000030F5002030F6008230F7003E08F0001F
:100592003F08F1004008F2004108F3003D2101301C
:1005A200031C0030F00070080319F42A83163E0879
:1005B200F0003F08F1004008F2004108F300CD309E
:1005C200F400CC30F5004C30F6007B30F7008D2182
:1005D20070088316BE007108BF007208C00073085D
:1005E200C100C20ABE2A8316FF303E05F800FF3062
:1005F2003F05F9007F304005FA0000304105FB005D
:100602007808F4007908F5007A08F6007B08F7000C
:10061200F40DF50DF60DF70D741000303E05F000E7
:1006220000303F05F10000304005F200FF30410587
:10063200F3007008BE007108BF007208C0007308A2
:10064200C10074083E04F00075083F04F10076080A
:100652004004F20077084104F3007008BE007108FC
:10066200BF007208C0007308C1007F304102F00071
:1006720070088312EE0001308316C1007008F40086
:100682003E08F0003F08F1004008F2004108F30084
:1006920074080319532BF00DF10DF20DF30D7010C8
:1006A200FF3E4A2B7008BE007108BF007208C000EE
:1006B2007308C1004108303EF00083126C088400C8
:1006C20070088000EC0A803083164206F000803009
:1006D200013A7002031C762B8030063AF00080301B
:1006E20042067002031C762B7E2B83126C08840058
:1006F2002E308000EC0A0130EF0083120630EE004B
:100702006E08003A0319E22B8316C1013E08F0007D
:100712003F08F1004008F2004108F300F00DF10D2E
:10072200F20DF30D7010F00DF10DF20DF30D7010CE
:100732003E08F0073F0803183F0FF107400803186F
:10074200400FF20741080318410FF3077008BE007B
:100752007108BF007208C0007308C1003E08F000B3
:100762003F08F1004008F2004108F300F00DF10DDE
:10077200F20DF30D70107008BE007108BF00720810
:10078200C0007308C1004108303EF00083126C08BB
:10079200840070088000EC0A6F08003A031DDF2B0A
:1007A2008316C2034208003A031DDF2B83126C0832
:1007B20084002E308000EC0A0130EF008312EE0339
:1007C200812BFF306C0784000008303A031DEB2BAD
:1007D200EC03E22BFF306C07840000082E3A031D65
:1007E200F32BEC0383164208003A0319392C8312C7
:1007F2006C08840065308000EC0A80308316420663
:10080200F0008030003A70020318112C83126C0839
:1008120084002D308000EC0A83164208003CC2009E
:1008220042088312EE008030093AF00080308316CD
:100832004206700203182A2C0A30F40083126E0852
:10084200F00097203030F0076C08840070088000B8
:10085200EC0A83120A30F4006E08F0009720780840
:10086200F0003030F0076C08840070088000EC0A59
:0C08720083126C0884008001F001080073
:10087E00831203135C1168088316C300E820080076
:10088E0083120313680899000C1A4E2C4B2C0C1271
:02089E00080050
:1008A000831203137008F8007108F000F101F201DF
:1008B000F301FB01FC019630F300FA017008F1002E
:0C08C0007808F000F801F2010E21080099
:1008CC00831203137408003A031D752C7508003A43
:1008DC00031D752CFF30F0007F30F100CE2C8312FD
:1008EC000313FD01F901F8017108700403190034B8
:1008FC0071087506FA00FA1BFD09FB01F51F8B2C1C
:10090C00F409F509F40A0319F50AF11F922CF00900
:10091C00F109F00A0319F10A71087504FA00FA1BBF
:10092C00A72C6B207B18BA2CFD1F0034F009F109A1
:10093C00F00A0319F10AF809F909F80A0319F90A76
:10094C000034F51FB62CF11BB22C7108F90070089D
:10095C00F800F101F0019A2CF101F001F00A0034D9
:10096C00F109F009FB0A972CF80A0319F90A740823
:10097C007802031D9A2C75087902031D9A2CF90133
:10098C00F801F00A0319F10AF11F9A2C0000FF3448
:02099C00080051
:10099E0083120313F801F9011030FC00710DF80DEC
:1009AE00F90D7408F8027508031C750FF902031887
:1009BE00E72C7408F80775080318750FF90703106C
:0A09CE00F00DF10DFC0BD52C080014
:1009D800831203136708840000080319FA2C6708B8
:0E09E80084000008E8000922E70AEC2C080051
:1009F600831203132408F4002508F5006030F00084
:100A0600EA30F100CF247008A2007108A300643018
:100A1600F4000030F50066247008DF007108E0007D
:100A260050247008E8007108E9007208EA007308AB
:100A3600EB00AF30EC001122831603132F0883124C
:100A4600D000831630088312D1006008003C031DD5
:100A56002E2D5F08633C0318342D8316310883124C
:100A6600D200E301E4016408003C031D3C2D630849
:100A76000A3C031C482D63084A3E84000008E8002F
:100A86004724E30A0319E40A362D0D30E80047240B
:020A9600080056
:100A9800831203139F149F1C522D4F2D4130FC00CD
:100AA800EE30FD00FD0B562DFC0B562D00001E08E8
:100AB800F100F00183161E08F0070318F10A50240C
:100AC800F830F400FF30F5007930F6007D30F7009B
:100AD8008D217008A6007108A7007208A800730885
:100AE800A9007008E8007108E9007208EA007308B4
:100AF800EB00A030EC0011228316031320088312A8
:100B0800B100831621088312B200831623088312CA
:100B1800B400DD01DE015E08003C031D952D5D0873
:100B28000B3C031CA12D5D082A3E84000008E80048
:100B38004724DD0A0319DE0A8F2D0D30E80047240B
:020B48000800A3
:100B4A00013083120313E8003F240D30FC00FB3010
:100B5A00FD00FD0BAE2DFC0BAE2D00000000023097
:060B6A00E8003F24080032
:100B700083120313881BCE2D8230FC00DD30FD0074
:100B8000FD0BC02DFC0BC02D00000000881FCD2DDB
:0E0B900086105430E700EC24C62D86140800B1
:100B9E00831203130818EA2D00305B06031DD92DAE
:100BAE0000305A06031DEA2D8230FC00DD30FD00B8
:100BBE00FD0BDF2DFC0BDF2D000000000130DA00F5
:100BCE000030DB00192E0818032E00305B06031DC3
:100BDE00F22D01305A06031D032E8230FC00DD304B
:100BEE00FD00FD0BF82DFC0BF82D0000000002306F
:100BFE00DA000030DB00192E0818192E00305B06C3
:100C0E00031D0B2E02305A06031D192E8230FC00D6
:100C1E00DD30FD00FD0B112EFC0B112E000000002F
:060C2E00DA01DB01080001
:0C0C3400C03083120313E8003F240800C6
:100C4000FB244A30E700EC248230FC00DD30FD005C
:0E0C5000FD0B282EFC0B282E000000000800D3
:0E0C5E008312031362088A00610882000800F6
:100C6C00A5254C252A30E700EC248230FC00DD3031
:100C7C00FD00FD0B3F2EFC0B3F2E0000000008007A
:100C8C000030831203135B06031D4E2E00305A06F0
:100C9C00031D5F2EA52536261A2620260230FC00C1
:100CAC004B30FD00FD0B582EFC0B582EB825CF25D4
:100CBC00462E00305B06031D652E01305A06031DBF
:100CCC00742EA52536260230FC004B30FD00FD0BA2
:100CDC006D2EFC0B6D2EB825CF255F2E00305B06DC
:100CEC00031D7A2E02305A06031D892EA5252026B7
:100CFC000230FC004B30FD00FD0B822EFC0B822ED3
:080D0C00B825CF25742E080064
:100D14002030831603139800803083129800053026
:0C0D24008316990083120C128C12080038
:100D3000A5253B30E700EC240330FB008A30FC00A3
:100D40005530FD00FD0BA22EFC0BA22EFB0BA22E9C
:060D500000000000080095
:100D56008030831203139F00803083169F00831216
:0A0D66001F119F111F121F14080037
:100D7000831203138501870109100915881783164B
:100D80008817831208148316081488108714871193
:100D90008712091008120713871709158312861482
:100DA0008316861083129F1404308100A0308B00BC
:100DB0001730831681008312101490148E018F0156
:020DC000080029
:100DC2008312031394111411941014109416141214
:0C0DD20083161417941387118712080071
:100DDE00831203135C1109108230FC00DD30FD001C
:100DEE00FD0BF72EFC0BF72E000000003030DC0060
:100DFE003830DC003F20DC113F200D30FC00FB3092
:100E0E00FD00FD0B082FFC0B082F00000000DC1569
:100E1E003F20DC113F200D30FC00FB30FD00FD0BB0
:100E2E00162FFC0B162F00000000DC153F20DC11E6
:100E3E003F200D30FC00FB30FD00FD0B242FFC0B82
:100E4E00242F000000002030DC002830DC003F2082
:100E5E00DC113F200D30FC00FB30FD00FD0B352F6B
:100E6E00FC0B352F000000002830E8003F240D3029
:100E7E00FC00FB30FD00FD0B422FFC0B422F00004F
:100E8E0000000130E8003F240D30FC00FB30FD0077
:100E9E00FD0B4F2FFC0B4F2F000000000C30E80015
:100EAE003F240D30FC00FB30FD00FD0B5C2FFC0BD6
:0E0EBE005C2F000000000630E8003F24080012
:100ECC002F268A110A128000840AE10A0319E20A09
:080EDC00F003031D662F08005E
:100EE400BE27B826E126EF26603083168F00AB2696
:0A0EF40098268A2646267C2F7E2FC2
:100F7C00223084003A3083120313F0008430E100F5
:080F8C000730E20066270800AF
:040F0800003400347D
:040F0C000034003479
:080F1000003400340034003409
:100F1800543465346D34703420343D3420343034E6
:0A0F280030342E34303443340034EA
:080F32004E3461344E340034EA
:0E0F3A00203452346534613464347934003428
:040F4800303400340D
:040F4C000034003439
:080F500049344E3446340034EC
:100F5800423470346D3420343D34203430343034ED
:040F680020340034FD
:0C0F6C0020344F34463446342034003426
:040F7800003400340D
:04400E00F22F000786
:00000001FF
